:100000000C9465000C948D000C948D000C948D0064
:100010000C948D000C948D000C948D000C948D002C
:100020000C948D000C948D000C948D000C948D001C
:100030000C948D000C948D000C948D000C948D000C
:100040000C94F8030C948D000C9455080C948D00BE
:100050000C948D000C948D000C948D000C948D00EC
:100060000C948D000C948D000000000024002700EB
:100070002A0000000000250028002B0000000000DE
:1000800023002600290004040404040404040202DA
:100090000202020203030303030301020408102007
:1000A0004080010204081020010204081020000012
:1000B0000007000201000003040600000000000029
:1000C0000000D501CE065109CE0111241FBECFEF8D
:1000D000D8E0DEBFCDBF11E0A0E0B1E0EEEAF8E18C
:1000E00002C005900D92AA32B107D9F711E0AAE239
:1000F000B1E001C01D92A73FB107E1F710E0C8ECE5
:10010000D0E004C02297FE010E94460CC23CD107F9
:10011000C9F70E944E080C944A0C0C940000CF932F
:10012000DF93BC018230910510F462E070E0A09191
:10013000F501B091F601ED01E0E0F0E040E050E0C3
:1001400021C0888199818617970769F48A819B81EC
:10015000309719F09383828304C09093F6018093C3
:10016000F501FE0134C06817790738F441155105CF
:1001700019F08417950708F4AC01FE018A819B8170
:100180009C01E9012097E9F641155105A9F1CA0141
:10019000861B970B049708F4BA01E0E0F0E02AC050
:1001A0008D919C91119784179507F9F46417750741
:1001B00081F412968D919C911397309719F0938347
:1001C000828304C09093F6018093F501FD0132967D
:1001D0004CC0CA01861B970BFD01E80FF91F619304
:1001E000719302978D939C9340C0FD01828193810E
:1001F0009C01D9011097A1F68091F3019091F4012F
:10020000892B41F480911201909113019093F40194
:100210008093F3014091140150911501411551054E
:1002200041F44DB75EB78091100190911101481BC8
:10023000590B2091F3013091F401CA01821B930BF9
:100240008617970780F0AB014E5F5F4F84179507C5
:1002500050F0420F531F5093F4014093F301F90102
:100260006193719302C0E0E0F0E0CF01DF91CF91A4
:100270000895CF93DF93009709F450C0EC012297C3
:100280001B821A82A091F501B091F601109709F135
:1002900040E050E0AC17BD0708F1BB83AA83FE0124
:1002A00021913191E20FF31FAE17BF0779F48D91C1
:1002B0009C911197280F391F2E5F3F4F3983288358
:1002C00012968D919C9113979B838A8341155105BA
:1002D00071F4D093F601C093F50120C012968D9170
:1002E0009C911397AD01009711F0DC01D3CFFA0177
:1002F000D383C28321913191E20FF31FCE17DF0721
:1003000069F488819981280F391F2E5F3F4FFA01C8
:10031000318320838A819B8193838283DF91CF9174
:1003200008950F938130910551F56F5F7F4FA1F5CF
:100330008AE291E065E00E94C6068CE291E066E008
:100340000E94C6068EE291E069E070E04AE050E06B
:100350002BE030E001E00E944C0688E391E063E08E
:100360000E94240689E391E06AE070E00E94910512
:1003700085E491E06AE070E00E9491050DC0892B50
:1003800059F46F5F7F4F41F485E491E00E948B0543
:1003900089E391E00E948B050F91089580E090E041
:1003A0006FEF7FEF0E949101089581E090E06FEF81
:1003B0007FEF0E94910108952F923F924F925F929A
:1003C0006F927F928F929F92AF92BF92CF92DF9265
:1003D000EF92FF920F931F93CF93DF9381E00E94E0
:1003E0007603EC01853091052CF425E030E040E007
:1003F00050E00BC024E0C030D20714F08FEF93E040
:100400009C01442737FD4095542F00D000D08EEF3B
:1004100090E0A0E0B0E0EDB7FEB781839283A383C4
:10042000B483CA01B90125E030E040E050E01FEF9D
:10043000E12E13E0F12E012D112DAA24BB2465011C
:100440000E94D4061B012C010F900F900F900F906B
:1004500082E00E947603AA2797FDA095BA2FBC01DF
:10046000CD010E940D0BAB01BC0185E491E00E941F
:10047000100585E491E00E94640520E030E84CEF2F
:1004800053E40E946E0A88232CF429EF31E040E007
:1004900050E019C085E491E00E94640520E030E05E
:1004A0004CE054E40E94BD0B18162CF420E332E01B
:1004B00040E050E008C085E491E00E9464050E949D
:1004C000DA0A9B01AC0100D000D08EEF90E0A0E0F2
:1004D000B0E0EDB7FEB781839283A383B483CA01F2
:1004E000B90129EF31E040E050E0B0E3EB2EB2E09B
:1004F000FB2E012D112DAA24BB2465010E94D406D8
:100500003B014C010F900F900F900F9083E00E94E1
:100510007603AA2797FDA095BA2FBC01CD010E94B2
:100520000D0BAB01BC0189E391E00E94100589E34A
:1005300091E00E94640520E030E048EC52E40E9423
:100540006E0A88232CF424E630E040E050E019C025
:1005500089E391E00E94640520E030E842E254E43F
:100560000E94BD0B18162CF42AE832E040E050E05F
:1005700008C089E391E00E9464050E94DA0A9B01A9
:10058000AC0100D000D08EEF90E0A0E0B0E0EDB77D
:10059000FEB781839283A383B483CA01B90124E6A1
:1005A00030E040E050E0AAE8EA2EA2E0FA2E012D69
:1005B000112DAA24BB2465010E94D4069B01AC0125
:1005C0000F900F900F900F908EE291E0B301A90170
:1005D00091010E94C306C95ED3400CF457C089E361
:1005E00091E00E94640520E030E048EC52E40E9473
:1005F0006E0A88232CF424E630E040E050E019C075
:1006000089E391E00E94640520E030E842E254E48E
:100610000E94BD0B18162CF42AE832E040E050E0AE
:1006200008C089E391E00E9464050E94DA0A9B01F8
:10063000AC0100D000D080ED97E0A0E0B0E0EDB7D5
:10064000FEB781839283A383B483CA01B90124E6F0
:1006500030E040E050E0FAE8EF2EF2E0FF2E012D0E
:10066000112DE4E8AE2EE3E0BE2EC12CD12C0E9469
:10067000D4069B01AC010F900F900F900F9088E370
:1006800091E0B90144E650E00E94CE0562E370E0DB
:1006900080E090E00E944004DF91CF911F910F9184
:1006A000FF90EF90DF90CF90BF90AF909F908F9092
:1006B0007F906F905F904F903F902F9008950F9391
:1006C0001F9300EE11E0C80140E855E260E070E0E1
:1006D0000E94860889E391E00E94DE04C80160E080
:1006E00071E00E9443081F910F910895982F8E305A
:1006F00008F09E509770809116018295880F880FA0
:10070000807C892B80937C0080917A008064809328
:100710007A0080917A0086FDFCCF2091780040918C
:100720007900942F80E030E0282B392BC9010895FF
:100730001F93CF93DF93182FEB0161E00E948B0989
:10074000209709F44AC0CF3FD10509F449C0E12FF1
:10075000F0E0E255FF4F84918330C1F0843028F4FB
:10076000813051F08230B1F50CC0863019F18730FC
:1007700049F1843079F514C084B5806884BDC7BD63
:1007800033C084B5806284BDC8BD2EC08091800016
:10079000806880938000D0938900C093880024C033
:1007A00080918000806280938000D0938B00C09302
:1007B0008A001AC08091B00080688093B000C09316
:1007C000B30012C08091B00080628093B000C093EB
:1007D000B4000AC0C038D1051CF4812F60E002C00B
:1007E000812F61E00E94B109DF91CF911F9108959F
:1007F0001F920F920FB60F9211242F933F938F9356
:100800009F93AF93BF938091550190915601A09112
:100810005701B0915801309159010196A11DB11DA8
:10082000232F2D5F2D3720F02D570196A11DB11DCF
:10083000209359018093550190935601A09357013D
:10084000B09358018091510190915201A0915301B0
:10085000B09154010196A11DB11D80935101909357
:100860005201A0935301B0935401BF91AF919F9156
:100870008F913F912F910F900FBE0F901F90189561
:100880009B01AC017FB7F894809151019091520186
:10089000A0915301B091540166B5A89B05C06F3F6C
:1008A00019F00196A11DB11D7FBFBA2FA92F982F56
:1008B0008827860F911DA11DB11D62E0880F991F29
:1008C000AA1FBB1F6A95D1F7BC012DC0FFB7F894D2
:1008D0008091510190915201A0915301B091540126
:1008E000E6B5A89B05C0EF3F19F00196A11DB11D0B
:1008F000FFBFBA2FA92F982F88278E0F911DA11DFA
:10090000B11DE2E0880F991FAA1FBB1FEA95D1F71E
:10091000861B970B885E9340C8F2215030404040C0
:10092000504068517C4F211531054105510571F644
:100930000895019739F0880F991F880F991F029722
:100940000197F1F70895789484B5826084BD84B5E9
:10095000816084BD85B5826085BD85B5816085BDBA
:10096000EEE6F0E0808181608083E1E8F0E01082D3
:10097000808182608083808181608083E0E8F0E014
:10098000808181608083E1EBF0E0808184608083FE
:10099000E0EBF0E0808181608083EAE7F0E0808135
:1009A0008460808380818260808380818160808395
:1009B0008081806880831092C1000895EF92FF9239
:1009C0000F931F93CF93DF93EC011B821A821D823A
:1009D0001C8280E090E0A0E0B0E08E839F83A88737
:1009E000B98740E050E020E030E07C018D010CC090
:1009F000EA85FB85E20FF31FE082F1820283138315
:100A00004F5F5F4F2C5F3F4F88819981481759078F
:100A10007CF3DF91CF911F910F91FF90EF9008959C
:100A2000AF92BF92CF92DF92EF92FF920F931F93FC
:100A3000CF93DF93EC016A017B01AC80BD80C501DF
:100A4000880F991F880F991F0A851B85080F191F8A
:100A50006E817F8188859985F8012081318142816D
:100A600053810E94090A6E837F8388879987F801E2
:100A7000C082D182E282F3826E817F8188859985EE
:100A8000A70196010E940A0A6E837F83888799874F
:100A900028813981C5010196B9010E94F40B9D831B
:100AA0008C838A819B81821793071CF401969B8318
:100AB0008A83DF91CF911F910F91FF90EF90DF908C
:100AC000CF90BF90AF900895CF93DF93EC012A8130
:100AD0003B812115310529F4E0E070E080E060E021
:100AE00011C0B901882777FD8095982F0E940D0BC2
:100AF0009B01AC016E817F81888599850E94720A75
:100B0000E62F692F2E2F372F482F562FB901CA01F4
:100B1000DF91CF910895FC01828593850E94390170
:100B20000895EF92FF920F931F93CF93DF93EC0101
:100B3000CB0179836883880F991F880F991F0E94C2
:100B40008F008A879B871B821A821D821C8280E00D
:100B500090E0A0E0B0E08E839F83A887B98740E053
:100B600050E020E030E07C018D010CC0EA85FB857F
:100B7000E20FF31FE082F182028313834F5F5F4F26
:100B80002C5F3F4F88819981481759077CF3DF918B
:100B9000CF911F910F91FF90EF9008954F925F9228
:100BA0006F927F928F929F92AF92BF92CF92DF927D
:100BB000EF92FF920F931F93CF93DF932C01EB01E2
:100BC000662757FD6095762FCB01BA0128EE33E0FA
:100BD00040E050E00E94C10B3B014C01CE01880F68
:100BE000991F5C01CC24B7FCC094DC2CEE24FF24BC
:100BF000870114C0F201808161E00E94B109CE0139
:100C00000E949904F201808160E00E94B109CE0146
:100C10000E949904EA0CFB1C0C1D1D1DE614F70430
:100C2000080519053CF3DF91CF911F910F91FF90BB
:100C3000EF90DF90CF90BF90AF909F908F907F907C
:100C40006F905F904F900895FC01862F608361E064
:100C50000E948B090895CF92DF92EF920F936C015F
:100C6000862FF601648375835783468331872087F7
:100C70000183E08261E00E948B09F601868161E0D8
:100C80000E948B09F601808561E00E948B090F911B
:100C9000EF90DF90CF900895EF920F93E02E01E058
:100CA0000E942B060F91EF9008950F931F93CF93FF
:100CB000DF93EC01162F072F8C81998160FF02C012
:100CC000692F02C061E069270E94B1098E81998174
:100CD00011FF02C0692F02C061E069270E94B109BB
:100CE0008885998112FF02C0692F02C061E06927DF
:100CF0000E94B1091A830B83DF91CF911F910F914D
:100D00000895EF92FF920F931F93CF93DF93EC011F
:100D10008A0179018881882351F12C818981882376
:100D200031F48FEF90E0AC01461B570BBA01822FD4
:100D30000E9498032E818981882331F48FEF90E0FF
:100D4000AC01401B510B8A01822FB8010E9498030D
:100D500028858981882331F48FEF90E0AC014E190A
:100D60005F097A01822FB7010E94980305C0CE0166
:100D700067E070E00E945506DF91CF911F910F91BF
:100D8000FF90EF9008950E9481060895FC01862F40
:100D90006183108261E00E948B0908958AE591E0E9
:100DA0006DE00E94C60608952F923F924F925F9287
:100DB0006F927F928F929F92AF92BF92CF92DF926B
:100DC000EF92FF920F931F93DF93CF93CDB7DEB7D0
:100DD0003B014C0119012A016D897E898F89988D0B
:100DE0006A197B098C099D09621A730A840A950A9B
:100DF000A40193010E94C10BE218F308040915092C
:100E0000A80197010E94290C2A0D3B1D4C1D5D1D58
:100E1000B901CA01CF91DF911F910F91FF90EF901F
:100E2000DF90CF90BF90AF909F908F907F906F900A
:100E30005F904F903F902F9008950F931F93CF9303
:100E4000DF938C01EB0109C02196D801ED91FC9153
:100E50000190F081E02DC801099568816623A1F712
:100E6000DF91CF911F910F910895EF92FF920F9311
:100E70001F93CF93DF938C017B01EA010CC0D70154
:100E80006D917D01D801ED91FC910190F081E02DF3
:100E9000C80109952197209791F7DF91CF911F9174
:100EA0000F91FF90EF900895DC01ED91FC9102808D
:100EB000F381E02D099508952F923F924F925F9212
:100EC0006F927F928F929F92AF92BF92CF92DF925A
:100ED000EF92FF920F931F93DF93CF93CDB7DEB7BF
:100EE000A0970FB6F894DEBF0FBECDBF1C016A01FC
:100EF0007B01411551056105710549F440E350E05E
:100F000060E070E020E030E00E94F60756C08824E0
:100F100099245401422E55246624772401E010E0E0
:100F20000C0F1D1F080D191DC701B601A301920169
:100F30000E94070CF80160830894811C911CA11C7D
:100F4000B11CC701B601A30192010E94070CC9019F
:100F5000DA016C017D01C114D104E104F104F1F660
:100F600081E0E82EF12CEC0EFD1EE80CF91C3E0190
:100F70000894611C711CD501C4010197A109B10934
:100F80006C01C818D90816C0F601EE0DFF1D40818E
:100F90004A3010F4405D01C0495C552747FD50952B
:100FA000652F752FC10120E030E00E94F6070894FC
:100FB000E108F1086E147F0439F7A0960FB6F89493
:100FC000DEBF0FBECDBFCF91DF911F910F91FF907C
:100FD000EF90DF90CF90BF90AF909F908F907F90D9
:100FE0006F905F904F903F902F900895EF92FF92F7
:100FF0000F931F93CF93DF93EC017A018B0121159F
:10100000310541F4E881F9810190F081E02D642FF0
:1010100009951BC02A303105B1F477FF10C04DE2AD
:1010200050E060E070E020E030E00E94F6071095AC
:101030000095F094E094E11CF11C011D111DCE01FE
:10104000B801A7012AE00E945C07DF91CF911F91B0
:101050000F91FF90EF9008950F931F938C014DE037
:1010600050E060E070E020E030E00E94F607C80148
:101070004AE050E060E070E020E030E00E94F607D7
:101080001F910F9108950F931F938C010E94540795
:10109000C8010E942C081F910F9108950E94A3047B
:1010A0000E945F030E94DC01FDCF1F920F920FB6DA
:1010B0000F9211242F933F934F938F939F93EF930E
:1010C000FF934091C600E091DC01F091DD01319683
:1010D0009F012F77307031978091DE019091DF0171
:1010E0002817390739F0E45AFE4F40833093DD0169
:1010F0002093DC01FF91EF919F918F914F913F9150
:101100002F910F900FBE0F901F901895CF93DF93E4
:10111000EC019A01AB01E885F985203081EE3807B2
:1011200080E0480780E0580709F449C081E090E07A
:101130000A8802C0880F991F0A94E2F7808360E052
:1011400079E08DE390E00E94290C2150304040402E
:101150005040CA01B90122E030E040E050E00E9476
:10116000290CEC81FD813083EE81FF812083EA85AB
:10117000FB85208141E050E0CA010E8402C0880F47
:10118000991F0A94E2F7282B2083EA85FB852081AA
:10119000CA010F8402C0880F991F0A94E2F7282B16
:1011A0002083EA85FB858081088802C0440F551F93
:1011B0000A94E2F7842B8083DF91CF910895108207
:1011C00020E130E0CECFDC011296ED91FC91139737
:1011D000E058FF4F2191319180819181281B390B7B
:1011E0002F773070C9010895DC011296ED91FC91C2
:1011F0001397EE57FF4F2081318192918291E058F1
:10120000F0408217930719F42FEF3FEF05C0E20F6C
:10121000F31F8081282F30E0C9010895DC01129668
:10122000ED91FC911397DF01AE57BF4F2D913C918B
:101230001197E058FF4F80819181E058F04082176C
:10124000930719F42FEF3FEF0BC0E20FF31F8081DC
:101250002F5F3F4F2F7730702D933C93282F30E036
:10126000C9010895DC011296ED91FC911397EE5798
:10127000FF4F80819181929382930895FC01A08514
:10128000B18521898C9190E0022E02C095958795B9
:101290000A94E2F780FFF6CF0484F585E02D6083A1
:1012A00008958BE191E09093E1018093E0018CE55A
:1012B00091E09093E3018093E20185EC90E09093BC
:1012C000E5018093E40184EC90E09093E701809342
:1012D000E60180EC90E09093E9018093E80181ECD5
:1012E00090E09093EB018093EA0186EC90E090937C
:1012F000ED018093EC0184E08093EE0183E0809324
:10130000EF0187E08093F00185E08093F10181E0B7
:101310008093F2010895482F50E0CA0186569F4FEE
:10132000FC0124914A575F4FFA0184918823C1F050
:10133000E82FF0E0EE0FFF1FE859FF4FA591B491A1
:10134000662341F49FB7F8948C91209582238C9367
:101350009FBF08959FB7F8948C91822B8C939FBF69
:101360000895482F50E0CA0182559F4FFC012491F7
:10137000CA0186569F4FFC0134914A575F4FFA01CC
:101380009491992309F444C0222351F1233071F040
:10139000243028F42130A1F0223011F514C0263079
:1013A000B1F02730C1F02430D9F404C0809180001E
:1013B0008F7703C0809180008F7D8093800010C064
:1013C00084B58F7702C084B58F7D84BD09C08091BC
:1013D000B0008F7703C08091B0008F7D8093B00004
:1013E000E92FF0E0EE0FFF1FEE58FF4FA591B491EB
:1013F000662341F49FB7F8948C91309583238C93A6
:101400009FBF08959FB7F8948C91832B8C939FBFB7
:1014100008955058BB27AA270ED075C166D130F069
:101420006BD120F031F49F3F11F41EF45BC10EF438
:10143000E095E7FB51C1E92F77D180F3BA17620736
:1014400073078407950718F071F49EF58FC10EF4A9
:10145000E0950B2EBA2FA02D0B01B90190010C01C4
:10146000CA01A0011124FF27591B99F0593F50F4DC
:10147000503E68F11A16F040A22F232F342F442734
:10148000585FF3CF469537952795A795F04053952C
:10149000C9F77EF41F16BA0B620B730B840BBAF0FC
:1014A0009150A1F0FF0FBB1F661F771F881FC2F767
:1014B0000EC0BA0F621F731F841F48F4879577957B
:1014C0006795B795F7959E3F08F0B3CF9395880F32
:1014D00008F09927EE0F979587950895D9D008F4CD
:1014E00081E008950CD00FC107D140F0FED030F05C
:1014F00021F45F3F19F0F0C0511139C1F3C014D18C
:1015000098F39923C9F35523B1F3951B550BBB27CA
:10151000AA2762177307840738F09F5F5F4F220F77
:10152000331F441FAA1FA9F333D00E2E3AF0E0E870
:1015300030D091505040E695001CCAF729D0FE2FBC
:1015400027D0660F771F881FBB1F2617370748074E
:10155000AB07B0E809F0BB0B802DBF01FF27935804
:101560005F4F2AF09E3F510568F0B6C000C15F3F53
:10157000ECF3983EDCF3869577956795B795F795EC
:101580009F5FC9F7880F911D9695879597F90895E4
:10159000E1E0660F771F881FBB1F62177307840780
:1015A000BA0720F0621B730B840BBA0BEE1F88F78F
:1015B000E095089504D06894B111D9C00895BCD0C5
:1015C00088F09F5790F0B92F9927B751A0F0D1F02C
:1015D000660F771F881F991F1AF0BA95C9F712C0B6
:1015E000B13081F0C3D0B1E00895C0C0672F782F2B
:1015F0008827B85F39F0B93FCCF386957795679522
:10160000B395D9F73EF490958095709561957F4F8D
:101610008F4F9F4F0895E89409C097FB3EF4909533
:101620008095709561957F4F8F4F9F4F9923A9F0BB
:10163000F92F96E9BB279395F6958795779567954A
:10164000B795F111F8CFFAF4BB0F11F460FF1BC08E
:101650006F5F7F4F8F4F9F4F16C0882311F096E921
:1016600011C0772321F09EE8872F762F05C06623CF
:1016700071F096E8862F70E060E02AF09A95660F88
:10168000771F881FDAF7880F9695879597F9089541
:10169000990F0008550FAA0BE0E8FEEF1616170683
:1016A000E807F907C0F012161306E407F50798F0EB
:1016B000621B730B840B950B39F40A2661F0232B04
:1016C000242B252B21F408950A2609F4A140A69580
:1016D0008FEF811D811D089597F99F6780E870E065
:1016E00060E008959FEF80EC089500240A94161698
:1016F000170618060906089500240A941216130600
:10170000140605060895092E0394000C11F488238D
:1017100052F0BB0F40F4BF2B11F460FF04C06F5FA9
:101720007F4F8F4F9F4F089557FD9058440F551F7F
:1017300059F05F3F71F04795880F97FB991F61F053
:101740009F3F79F087950895121613061406551FCA
:10175000F2CF4695F1DF08C0161617061806991F36
:10176000F1CF86957105610508940895E894BB272B
:1017700066277727CB0197F908958ADF08F48FEF62
:101780000895629FD001739FF001829FE00DF11DCB
:10179000649FE00DF11D929FF00D839FF00D749FEB
:1017A000F00D659FF00D9927729FB00DE11DF91F97
:1017B000639FB00DE11DF91FBD01CF0111240895F4
:1017C000AA1BBB1B51E107C0AA1FBB1FA617B70767
:1017D00010F0A61BB70B881F991F5A95A9F7809583
:1017E0009095BC01CD01089597FB092E07260AD0DC
:1017F00077FD04D0E5DF06D000201AF470956195DE
:101800007F4F0895F6F7909581959F4F0895A1E237
:101810001A2EAA1BBB1BFD010DC0AA1FBB1FEE1F6A
:10182000FF1FA217B307E407F50720F0A21BB30BB5
:10183000E40BF50B661F771F881F991F1A9469F731
:1018400060957095809590959B01AC01BD01CF018D
:10185000089597FB092E05260ED057FD04D0D7DF3B
:101860000AD0001C38F450954095309521953F4F93
:101870004F4F5F4F0895F6F790958095709561955D
:101880007F4F8F4F9F4F0895EE0FFF1F0590F491EC
:10189000E02D099410E0C8ECD0E004C0FE010E94E5
:0E18A000460C2296CA3CD107C9F7F894FFCF38
:1018AE0048656C6C6F20436F6D7075746572310096
:1018BE002000F701000001000000003E091D073561
:0A18CE0007E3080E09F408320900D0
:00000001FF
